:020000040800F2
:10000000080700208901000821210008C51E0008FA
:100010001D21000891020008C930000800000000FE
:100020000000000000000000000000008D26000815
:1000300095020008000000004D260008ED2700088A
:10004000A3010008A3010008A3010008A301000800
:10005000A3010008A3010008A3010008A3010008F0
:10006000A3010008A3010008A3010008A3010008E0
:10007000A3010008A3010008A3010008A3010008D0
:10008000A3010008A3010008A3010008A3010008C0
:10009000A3010008A3010008A3010008A3010008B0
:1000A000A3010008A3010008A3010008A3010008A0
:1000B000A3010008A3010008A3010008A301000890
:1000C000A3010008A3010008A3010008A301000880
:1000D000A3010008B9300008A3010008A30100082B
:1000E000A3010008A3010008A301000800F002F822
:1000F00000F03AF80AA090E8000C82448344AAF188
:100100000107DA4501D100F02FF8AFF2090EBAE885
:100110000F0013F0010F18BFFB1A43F0010318473B
:100120003040000050400000103A24BF78C878C129
:10013000FAD8520724BF30C830C144BF04680C60ED
:10014000704700000023002400250026103A28BF35
:1001500078C1FBD8520728BF30C148BF0B60704739
:100160001FB51FBD10B510BD00F058F81146FFF7C0
:10017000F7FF03F00BF800F076F803B4FFF7F2FF97
:1001800003BC00F07DF8000009488047094800479B
:10019000FEE7FEE7FEE7FEE7FEE7FEE7FEE7FEE737
:1001A000FEE7FEE704480549054A064B7047000094
:1001B00061280008ED000008080100200807002061
:1001C00008030020080300204FF0000200B513468A
:1001D00094469646203922BFA0E80C50A0E80C5067
:1001E000B1F12001BFF4F7AF090728BFA0E80C5018
:1001F00048BF0CC05DF804EB890028BF40F8042B11
:1002000008BF704748BF20F8022B11F0804F18BF7D
:1002100000F8012B7047704770477047754600F033
:100220002BF8AE4605006946534620F00700854688
:1002300018B020B5FFF7B6FFBDE820404FF000062C
:100240004FF000074FF000084FF0000BAC46ACE851
:10025000C009ACE8C009ACE8C009ACE8C00921F0AD
:1002600007018D46704710B50446AFF30080204665
:10027000BDE81040FFF781BF004870471000002024
:1002800001491820ABBEFEE72600020070470000BF
:10029000FFE7FEE77047000081B0EFF3108072B611
:1002A0000090FFE7FEE7000083B0019000208DF88A
:1002B0000300019890F8210002280DD0FFE7019972
:1002C00004208863FFE70199002081F82000FFE700
:1002D00001208DF80B0021E001980168086820F0EA
:1002E0000E00086001980168086820F001000860AD
:1002F0000198C16B026C012090404860FFE70199B2
:10030000012081F82100FFE70199002081F82000F9
:10031000FFE79DF803008DF80B00FFE79DF80B0049
:1003200003B0704780B588B0079000208DF81B009F
:10033000079890F82100022807D0FFE707990420CA
:10034000886301208DF81B0076E007980168086833
:1003500020F00E00086007980168086820F001008E
:100360000860079800680821C4F20201884203D19E
:10037000FFE70120059047E0079800681C21C4F2C0
:100380000201884203D1FFE71020049039E007986A
:1003900000683021C4F20201884204D1FFE74FF423
:1003A000807003902AE0079800684421C4F202019B
:1003B000884204D1FFE74FF4805002901BE0079879
:1003C00000685821C4F20201884204D1FFE74FF4CB
:1003D000803001900CE0079801686C22C4F20202A0
:1003E0004FF08070914208BF4FF480100190FFE7FA
:1003F00001980290FFE702980390FFE703980490AA
:10040000FFE704980590FFE705980421C4F2020174
:1004100008600799012081F82100FFE70799002073
:1004200081F82000FFE70798406B20B1FFE70798AD
:10043000416B8847FFE7FFE79DF81B0008B080BDD0
:1004400080B584B0039000F0D9F902900398019030
:100450000198013048B1FFE740F20400C2F2000009
:100460000178019808440190FFE7FFE700F0C6F922
:100470000299401A0199884201D2FFE7F6E704B0D9
:1004800080BD000090B00F900E9100200D9009905B
:10049000FFE70E9800680D99C840002800F07F81A2
:1004A000FFE70D99012088400C900E9800680C9988
:1004B00008400B900B980C99884240F06C81FFE744
:1004C0000E9840680590002851D0FFE70598012854
:1004D0003AD0FFE7059802283FD0FFE705980328A8
:1004E0005FD0FFE70598112832D0FFE70598122862
:1004F00038D0FFE705980021C1F21101884236D0BB
:10050000FFE705980021C1F2120188422FD0FFE7D2
:1005100005980021C1F22101884228D0FFE7059803
:100520000021C1F22201884221D0FFE70598002175
:10053000C1F2310188421AD0FFE705980021C1F2CB
:100540003201884213D02FE00E98C06809902CE049
:100550000E98C0680430099027E00E98C0680830F3
:10056000099022E00E98C0680C3009901DE00E98AA
:10057000806818B9FFE70420099011E00E988068A0
:10058000012806D1FFE7082009900C980F9908610F
:1005900005E0082009900C980F994861FFE7FFE7F4
:1005A00003E00020099000E0FFE70B98FF2803D844
:1005B000FFE70F98049003E00F9804300490FFE7E2
:1005C000049808900B98FF2804D8FFE70D98800046
:1005D000039006E00D996FF01F0000EB810003907F
:1005E000FFE70398079008980068079A0F21914049
:1005F0008843099991400843089908600E98C0798A
:10060000C006002840F1C680FFE7FFE741F218006E
:10061000C4F20200016841F001010160006800F0CD
:10062000010006900698FFE70D9820F003000821CE
:10063000C4F2010140580A900D9800F003008100B7
:100640000F2000FA01F10A9888430A900F9840F6AB
:100650000001C4F20101884203D1FFE700200290AB
:1006600026E00F9840F60041C4F20101884203D110
:10067000FFE70120019018E00F9841F20001C4F259
:100680000101884203D1FFE7022000900AE00F99A0
:1006900041F20042C4F201020420914208BF03204B
:1006A0000090FFE700980190FFE701980290FFE7B4
:1006B00002980D9901F00301890000FA01F10A98EE
:1006C00008430A900A980D9921F003010822C4F208
:1006D000010288500E988079C006002809D5FFE7EE
:1006E0000B9A40F20841C4F2010108681043086007
:1006F00008E00B9A40F20841C4F2010108689043F7
:100700000860FFE70E9880798006002809D5FFE78A
:100710000B9A40F20C41C4F20101086810430860D2
:1007200008E00B9A40F20C41C4F2010108689043C2
:100730000860FFE70E9880798007002809D5FFE759
:100740000B9A40F20441C4F20101086810430860AA
:1007500008E00B9A40F20441C4F20101086890439A
:100760000860FFE70E988079C00748B1FFE70B9A51
:1007700040F20041C4F2010108681043086008E03B
:100780000B9A40F20041C4F20101086890430860EE
:10079000FFE7FFE7FFE70D9801300D9079E610B015
:1007A0007047000083B00290ADF806100298C06850
:1007B0000090009ABDF8060002EA0001904340EA6A
:1007C00001400299086103B07047000082B00190B7
:1007D000ADF802108DF801209DF8010028B1FFE767
:1007E000BDF802000199086105E0BDF802000004AF
:1007F00001990861FFE702B07047000040F2041061
:10080000C2F200000068704740F20400C2F200002B
:10081000027840F20411C2F2000108681044086036
:100820007047000080B542F20001C4F2020108687E
:1008300040F010000860032000F096F80F2000F050
:1008400005F800F03BF8002080BD000080B582B0C4
:10085000009040F20000C2F20000006840F2040183
:10086000C2F200010A784FF47A71B1FBF2F1B0FBE9
:10087000F1F000F073FD20B1FFE701208DF80700D3
:1008800018E000980F280DD8FFE700994FF0FF30CF
:10089000002200F04FF8009840F20801C2F2000177
:1008A000086003E001208DF8070003E000208DF8C8
:1008B0000700FFE79DF8070002B080BD83B0FFE7A7
:1008C00041F21800C4F20200016841F00101016028
:1008D000006800F0010002900298FFE7FFE741F294
:1008E0001C00C4F20200016841F080510160006800
:1008F00000F0805001900198FFE7FFE70421C4F267
:10090000010108680090009820F0E06000900098D5
:1009100040F00070009000980860FFE703B0704757
:1009200080B582B08DF807009DF9070002F0CEFB7C
:1009300002B080BD80B586B08DF817000491039297
:100940000020029002F0DAFB02909DF9170001905E
:1009500002980499039A01F0E5FB0146019802F020
:10096000D5FB06B080BD000080B582B00190019833
:1009700002F0EEFB02B080BD80B584B00290019120
:10098000029820B9FFE701208DF80F001BE10198C4
:1009900042F20001C4F20201096801F00701884235
:1009A00016D9FFE742F20000C4F20200016821F00C
:1009B0000701019A11430160006800F007000199E6
:1009C000884204D0FFE701208DF80F00FBE0FFE72D
:1009D00002980078800700282AD5FFE7029800785F
:1009E0004007002809D5FFE741F20401C4F20201E3
:1009F000086840F4E0600860FFE7029800780007AC
:100A0000002809D5FFE741F20401C4F20201086899
:100A100040F460500860FFE741F20401C4F20201B3
:100A2000086820F0F000029A926810430860FFE71F
:100A300002980078C007002860D0FFE7029840685D
:100A400001280ED1FFE741F20000C4F20200006865
:100A50008003002804D4FFE701208DF80F00B2E0E6
:100A600021E00298406802280ED1FFE741F2000021
:100A7000C4F2020000688001002804D4FFE70120CE
:100A80008DF80F009FE00DE041F20000C4F202007B
:100A900000688007002804D4FFE701208DF80F00CC
:100AA00091E0FFE7FFE741F20401C4F202010868A8
:100AB00020F00300029A526810430860FFF79EFE80
:100AC0000090FFE741F20400C4F20200006800F069
:100AD0000C0002994968B0EB810F0ED0FFE7FFF7D9
:100AE0008DFE0099401A41F28931884204D3FFE714
:100AF00003208DF80F0066E0E4E7FFE7019842F27B
:100B00000001C4F20201096801F00701884216D20F
:100B1000FFE742F20000C4F20200016821F0070181
:100B2000019A11430160006800F0070001998842B2
:100B300004D0FFE701208DF80F0044E0FFE70298A2
:100B40000078400700280CD5FFE741F20401C4F209
:100B50000201086820F4E060029AD268104308603D
:100B6000FFE702980078000700280DD5FFE741F263
:100B70000401C4F20201086820F46050029A12696C
:100B800040EAC2000860FFE700F04CF841F20401BF
:100B9000C4F202010968C9B20A0943F6EC21C0F6A1
:100BA0000001895CC84040F20001C2F20001086007
:100BB00040F20800C2F200000068FFF747FE002084
:100BC0008DF80F00FFE79DF80F0004B080BD000016
:100BD00040F20000C2F200000068704780B5FFF7E5
:100BE000F7FF41F20401C4F202010968C1F30222D5
:100BF00043F6FC21C0F60001895CC84080BD0000BE
:100C000080B5FFF7E5FF41F20401C4F20201096873
:100C1000C1F3C22243F6FC21C0F60001895CC84042
:100C200080BD000086B000200590049003900290E3
:100C3000019041F20400C4F202000068059005989A
:100C400000F00C000146009100283FD0FFE700981B
:100C5000042804D0FFE70098082806D037E041F2C6
:100C60000020C0F27A00019037E00598C0F383417C
:100C700043F60430C0F60000405C02909DF8160078
:100C8000C007C0B1FFE741F20400C4F202000068EF
:100C9000C0F3404143F61430C0F60000405C0490BD
:100CA000029841F20021C0F27A0148430499B0FB56
:100CB000F1F0039007E0029840F60011C0F23D0108
:100CC00048430390FFE70398019006E0FFE741F2F5
:100CD0000020C0F27A000190FFE7019806B070474B
:100CE00080B586B00490049820B9FFE701208DF804
:100CF00017002EE304980078C007002800F0AE80AB
:100D0000FFE741F20400C4F20200006800F00C00AA
:100D1000042813D0FFE741F20400C4F20200006887
:100D200000F00C0008281BD1FFE741F20400C4F2D8
:100D300002000068C003002812D5FFE741F200005E
:100D4000C4F2020000688003002808D5FFE7049879
:100D5000406820B9FFE701208DF81700F9E27CE038
:100D6000FFE704984068B0F5803F09D1FFE741F202
:100D70000001C4F20201086840F48030086032E0EB
:100D80000498406868B9FFE741F20001C4F202012B
:100D9000086820F480300860086820F4802008602B
:100DA00020E004984068B0F5A02F0DD1FFE741F294
:100DB0000001C4F20201086840F48020086008685D
:100DC00040F4803008600CE041F20001C4F20201FE
:100DD000086820F480300860086820F480200860EB
:100DE000FFE7FFE7FFE7FFE704984068D0B1FFE7C0
:100DF000FFF704FD0390FFE741F20000C4F2020098
:100E00000068800300280CD4FFE7FFF7F7FC039984
:100E1000401A652804D3FFE703208DF8170098E2F5
:100E2000EAE719E0FFF7EAFC0390FFE741F2000070
:100E3000C4F202000068800300280CD5FFE7FFF72A
:100E4000DDFC0399401A652804D3FFE703208DF8E1
:100E500017007EE2EAE7FFE7FFE7FFE70498007884
:100E60008007002840F18D80FFE741F20400C4F2C2
:100E70000200006810F00C0F13D0FFE741F20400ED
:100E8000C4F20200006800F00C00082829D1FFE736
:100E900041F20400C4F202000068C003002820D41C
:100EA000FFE741F20000C4F202000068800700285A
:100EB00009D5FFE704980069012804D0FFE7012065
:100EC0008DF8170045E241F20001C4F20201086802
:100ED00020F0F800049A526940EAC2000860FFE777
:100EE0004EE00498006958B3FFE70021C4F24221A4
:100EF00001200860FFF782FC0390FFE741F2000049
:100F0000C4F202000068800700280CD4FFE7FFF756
:100F100075FC0399401A032804D3FFE703208DF8DA
:100F2000170016E2EAE741F20001C4F20201086884
:100F300020F0F800049A526940EAC20008601EE0FE
:100F40000021C4F2422100200860FFF757FC039003
:100F5000FFE741F20000C4F20200006880070028A9
:100F60000CD5FFE7FFF74AFC0399401A032804D386
:100F7000FFE703208DF81700EBE1EAE7FFE7FFE763
:100F8000FFE7049800780007002848D5FFE7049899
:100F9000806918B3FFE740F28041C4F2422101208A
:100FA0000860FFF72BFC0390FFE741F22400C4F236
:100FB00002000068800700280CD4FFE7FFF71EFC42
:100FC0000399401A032804D3FFE703208DF8170084
:100FD000BFE1EAE7012001F03BFB1FE040F2804166
:100FE000C4F2422100200860FFF708FC0390FFE7ED
:100FF00041F22400C4F202000068800700280CD5EA
:10100000FFE7FFF7FBFB0399401A032804D3FFE730
:1010100003208DF817009CE1EAE7FFE7FFE704985B
:1010200000784007002840F1D880FFE700208DF8C5
:10103000070041F21C00C4F202000068C000002852
:1010400013D4FFE7FFE741F21C00C4F2020001687D
:1010500041F080510160006800F0805000900098DD
:10106000FFE701208DF80700FFE747F20000C4F218
:1010700000000068C005002822D4FFE747F2000105
:10108000C4F20001086840F480700860FFF7B6FB06
:101090000390FFE747F20000C4F200000068C005BB
:1010A00000280CD4FFE7FFF7A9FB0399401A652835
:1010B00004D3FFE703208DF817004AE1EAE7FFE7D2
:1010C000FFE70498C068012809D1FFE741F2200139
:1010D000C4F20201086840F00100086031E00498A1
:1010E000C06868B9FFE741F22001C4F20201086854
:1010F00020F001000860086820F0040008601FE08C
:101100000498C06805280DD1FFE741F22001C4F220
:101110000201086840F004000860086840F001001F
:1011200008600CE041F22001C4F20201086820F0DE
:1011300001000860086820F004000860FFE7FFE78E
:10114000FFE7FFE70498C068E0B1FFE7FFF756FB51
:101150000390FFE741F22000C4F20200006880071C
:1011600000280ED4FFE7FFF749FB0399401A41F22C
:101170008931884204D3FFE703208DF81700E8E0A7
:10118000E8E71BE0FFF73AFB0390FFE741F220009E
:10119000C4F202000068800700280ED5FFE7FFF7C1
:1011A0002DFB0399401A41F28931884204D3FFE7AD
:1011B00003208DF81700CCE0E8E7FFE79DF8070073
:1011C000012809D1FFE741F21C01C4F202010868BD
:1011D00020F080500860FFE7FFE70498C06900280E
:1011E00000F0B380FFE741F20400C4F2020000689F
:1011F00000F00C00082800F08280FFE70498C06926
:1012000002285CD1FFE76021C4F24221002008607F
:10121000FFF7F4FA0390FFE741F20000C4F2020086
:101220000068800100280CD5FFE7FFF7E7FA039973
:10123000401A032804D3FFE703208DF8170088E045
:10124000EAE70498006AB0F5803F0CD1FFE741F26D
:101250000401C4F20201086820F40030049A926884
:1012600010430860FFE741F20401C4F2020108687C
:1012700020F47410049B1A6A5B6A1A4310430860D6
:101280006021C4F2422101200860FFF7B7FA039001
:10129000FFE741F20000C4F202000068800100286C
:1012A0000CD4FFE7FFF7AAFA0399401A032804D3E6
:1012B000FFE703208DF817004BE0EAE71EE060210E
:1012C000C4F2422100200860FFF798FA0390FFE77C
:1012D00041F20000C4F202000068800100280CD531
:1012E000FFE7FFF78BFA0399401A032804D3FFE7BF
:1012F00003208DF817002CE0EAE7FFE724E00498CC
:10130000C069012804D1FFE701208DF8170020E013
:1013100041F20400C4F2020000680290029800F456
:1013200080300499096A884208D1FFE7029800F4E6
:1013300070100499496A884204D0FFE701208DF8B3
:10134000170006E0FFE7FFE7FFE700208DF8170032
:10135000FFE79DF8170006B080BD000080B582B0A1
:101360000190019801F018FA02B080BD85B0039099
:101370000291FFE7039890F83C00012804D1FFE7B1
:1013800002208DF813005BE00399012081F83C00F6
:10139000FFE7FFE70399022081F83D00039800680A
:1013A000406801900398006880680090019820F0E0
:1013B000700001900298016801980843019001981B
:1013C0000399096848600398006842F60041C4F236
:1013D0000101884218D0FFE703980068B0F1804F00
:1013E00012D0FFE70398006840F20041C4F2000108
:1013F000884209D0FFE70398006840F60001C4F274
:10140000000188420ED1FFE7009820F08000009094
:101410000298416800980843009000980399096871
:101420008860FFE70399012081F83D00FFE70399F9
:10143000002081F83C00FFE700208DF81300FFE753
:101440009DF8130005B0704780B586B00590002068
:10145000049003900290019005980068B0F1804FCD
:101460001CD1FFE7FFE741F21800C4F20200016857
:1014700041F004010160006800F004000090009851
:10148000FFE70F20019002200290049040F6000038
:10149000C4F2010001A9FEF7F5FFFFE706B080BD29
:1014A00080B586B004900391029200208DF8070069
:1014B000FFE7049890F83C00012804D1FFE70220E0
:1014C0008DF817009FE00499012081F83C00FFE7A8
:1014D000FFE7029800900C2800F2868000990FF236
:1014E000080000EB8100874600F018B800F07CB8D7
:1014F00000F07AB800F078B800F029B800F074B8BD
:1015000000F072B800F070B800F03BB800F06CB8B2
:1015100000F06AB800F068B800F04CB804980068B1
:10152000039901F03FFA04980168886940F00800C7
:10153000886104980168886920F004008861039834
:1015400002690498016888691043886150E0049832
:101550000068039901F08EFA04980168886940F4E4
:101560000060886104980168886920F4806088615F
:101570000398026904980168886940EA022088613A
:1015800036E004980068039901F0E0FA04980168D5
:10159000C86940F00800C86104980168C86920F073
:1015A0000400C8610398026904980168C86910437F
:1015B000C8611DE004980068039901F033FB0498AA
:1015C0000168C86940F40060C86104980168C8698E
:1015D00020F48060C8610398026904980168C869B2
:1015E00040EA0220C86103E001208DF80700FFE710
:1015F000FFE70499002081F83C00FFE79DF8070011
:101600008DF81700FFE79DF8170006B080BD0000B9
:1016100080B582B00090009820B9FFE701208DF8D6
:1016200007003FE0009890F83D0040B9FFE70099BF
:10163000002081F83C00009800F038F8FFE700999E
:10164000022081F83D00009951F8040B01F00AF9DD
:101650000099012081F84600FFE70099012081F8F8
:101660003E00009981F83F00009981F84000009900
:1016700081F84100FFE7FFE70099012081F842006F
:10168000009981F84300009981F84400009981F89D
:101690004500FFE70099012081F83D0000208DF80A
:1016A0000700FFE79DF8070002B080BD82B00190FF
:1016B00001980068B0F1804F10D1FFE7FFE741F2D9
:1016C0001C00C4F20200016841F0010101600068E1
:1016D00000F0010000900098FFE7FFE702B07047BC
:1016E00080B58AB008900791079828B9FFE7089855
:1016F00090F83E0005901CE00798042805D1FFE70C
:10170000089890F83F00049010E00798082805D149
:10171000FFE7089890F84000039004E0089890F8DC
:1017200041000390FFE703980490FFE704980590B9
:10173000FFE70598012804D0FFE701208DF8270076
:101740007AE0079828B9FFE70899022081F83E005F
:101750001EE00798042806D1FFE70899022081F8C7
:101760003F00029012E00798082806D1FFE7089989
:10177000022081F84000019005E00899022081F8DC
:1017800041000190FFE701980290FFE70298FFE710
:10179000089800680799012201F0E8F808980068A5
:1017A00042F60041C4F20101884207D1FFE70898E0
:1017B0000168486C40F400404864FFE708980068FE
:1017C00042F60041C4F20101884218D0FFE70898B0
:1017D0000068B0F1804F12D0FFE70898006840F22F
:1017E0000041C4F20001884209D0FFE70898006870
:1017F00040F60001C4F20001884212D1FFE70898C8
:101800000068806800F0070006900698062807D058
:10181000FFE708980168086840F001000860FFE7EA
:1018200006E008980168086840F001000860FFE7DA
:1018300000208DF82700FFE79DF827000AB080BD43
:1018400082B00190ADF8021002B0704780B582B04E
:1018500001900198006843F60001C4F2010188423A
:101860000CD1FFE740F2B800C2F2000040F20011D4
:10187000C2F20001012200F0BFFAFFE702B080BD12
:1018800080B592B01190119800680068109011987E
:101890000068C0680F901198006840690E900020A1
:1018A0000D900C90109800F00F000D900D9888B9D5
:1018B000FFE79DF84000800600280AD5FFE79DF865
:1018C0003C008006002804D5FFE7119801F064FA77
:1018D000E9E1FFE70D98002800F0C280FFE79DF8DE
:1018E0003800C00738B9FFE7BDF83C0010F4907F1E
:1018F00000F0B680FFE79DF84000C00758B1FFE751
:101900009DF83D00C00730B1FFE71199486C40F0E9
:1019100001004864FFE79DF84000400700280BD510
:10192000FFE79DF83800C00730B1FFE71199486C18
:1019300040F002004864FFE79DF84000800700285F
:101940000BD5FFE79DF83800C00730B1FFE71199CC
:10195000486C40F004004864FFE79DF84000000731
:10196000002811D5FFE79DF83C008006002805D42B
:10197000FFE79DF83800C00730B1FFE71199486CC8
:1019800040F008004864FFE71198406C002866D0DA
:10199000FFE79DF84000800600280AD5FFE79DF884
:1019A0003C008006002804D5FFE7119801F0F4F907
:1019B000FFE7119800684069C0F380100C901198FF
:1019C000406C0007002804D4FFE70C9800283ED0A4
:1019D000FFE7119801F082F911980068406940060C
:1019E00000282FD5FFE7FFE7FFE71198006850E8D0
:1019F000050F20F040000B90FFE70B99119802684B
:101A000042E805100028F0D1FFE7FFE71198C06B0E
:101A100098B1FFE71198C16B42F6BD40C0F60000D7
:101A200048631198C06BFEF77DFC28B1FFE7119861
:101A3000C06B416B8847FFE703E01198FFF706FF93
:101A4000FFE703E01198FFF701FFFFE706E01198B9
:101A5000FFF7FCFE119900204864FFE7FFE722E151
:101A60001198006B012840F0FE80FFE79DF84000D0
:101A7000C006002840F1F780FFE79DF83C00C00653
:101A8000002840F1F080FFE7FFE700200A9011985E
:101A9000006800680A901198006840680A900A98E7
:101AA000FFE71198006840694006002840F18180F6
:101AB000FFE71198C06B00684068ADF82600BDF8DC
:101AC0002600002874D0FFE7BDF826001199898D03
:101AD00088426DDAFFE7BDF826001199C885119894
:101AE000C06B8069202858D0FFE7FFE7FFE7119817
:101AF000006850E8030F20F480700890FFE7089911
:101B00001198026842E803100028F0D1FFE7FFE7D0
:101B1000FFE7FFE71198006850E8050F20F001008B
:101B20000790FFE707991198026842E8051000281E
:101B3000F0D1FFE7FFE7FFE7FFE71198006850E803
:101B4000050F20F040000690FFE706991198026803
:101B500042E805100028F0D1FFE7FFE711992020A7
:101B600081F84200119900200863FFE7FFE7119810
:101B7000006850E8030F20F010000590FFE705997A
:101B80001198026842E803100028F0D1FFE7FFE750
:101B90001198C06BFEF788FBFFE71199022048639C
:101BA0001198818DC28D891A89B2FFF749FEFFE72E
:101BB00079E01199888DC98D401AADF812001198FD
:101BC000C08D00284ED0FFE7BDF81200002849D094
:101BD000FFE7FFE7FFE71198006850E8030F20F4E4
:101BE00090700390FFE703991198026842E8031090
:101BF0000028F0D1FFE7FFE7FFE7FFE71198006853
:101C000050E8050F20F001000290FFE702991198BB
:101C1000026842E805100028F0D1FFE7FFE71199BC
:101C2000202081F84200119900200863FFE7FFE7B8
:101C30001198006850E8030F20F010000190FFE7B2
:101C400001991198026842E803100028F0D1FFE7DB
:101C5000FFE71199022048631198BDF81210FFF7B1
:101C6000EFFDFFE71FE09DF84000000600280AD5C1
:101C7000FFE79DF83C000006002804D5FFE7119817
:101C800001F0D0F90FE09DF84000400600280AD589
:101C9000FFE79DF83C004006002804D5FFE71198B7
:101CA00001F066F8FFE712B080BD000080B582B099
:101CB0000090009820B9FFE701208DF8070040E070
:101CC0000098806908B1FFE700E0FFE7009890F80E
:101CD000410040B9FFE70099002081F840000098DA
:101CE00000F034F8FFE70099242081F841000098C3
:101CF0000168C86820F40050C860009801F002F93B
:101D000000980168086920F4904008610098016813
:101D1000486920F02A00486100980168C86840F4CA
:101D20000050C860009900204864009A202182F881
:101D30004110009A82F84210009948638DF807001C
:101D4000FFE79DF8070002B080BD000080B58CB0B1
:101D50000B9000200A900990089007900B9800685B
:101D600043F60001C4F20101884243D1FFE7FFE7D7
:101D700041F21800C4F20200016841F480410160A0
:101D8000006800F4804006900698FFE7FFE741F204
:101D90001800C4F20200016841F00401016000680B
:101DA00000F0040005900598FFE74FF400700790DD
:101DB0000220089003200A9040F60000C4F20100BF
:101DC000019007A90291FEF75DFB019802994FF47B
:101DD000806207920022039208920992FEF752FB5A
:101DE000039A252004901146FEF7A4FD0498FEF7FF
:101DF00097FDFFE70CB080BD80B584B002900191E3
:101E0000ADF80220029890F84200202817D1FFE791
:101E1000019820B1FFE7BDF8020020B9FFE70120DB
:101E20008DF80F000FE002990020086302980199D5
:101E3000BDF8022001F0C4F88DF80F0003E0022085
:101E40008DF80F00FFE79DF80F0004B080BD000083
:101E500080B582B001900198006843F60001C4F299
:101E60000101884228D1FFE740F20010C2F20000D1
:101E70000078312814DBFFE740F20010C2F20000C6
:101E8000007835280CDCFFE740F20010C2F20000B9
:101E90000078303840F20111C2F200010870FFE70B
:101EA00040F2B800C2F2000040F20011C2F200019C
:101EB0000122FFF7A1FFFFE702B080BD81B00090D3
:101EC00001B07047FFE7FEE780B500F001F880BD84
:101ED00080B541F20000C4F201004FF4005101222C
:101EE000FEF774FC80BD000080B541F20000C4F232
:101EF00001004FF40051FEF755FC80BD80B590B055
:101F000000200F900E900D900C90FFE741F218000A
:101F1000C4F20200016841F010010160006800F0A5
:101F200010000B900B98FFE7FFE741F21800C4F296
:101F30000200016841F020010160006800F020000B
:101F40000A900A98FFE7FFE741F21800C4F2020086
:101F5000016841F004010160006800F0040009908C
:101F60000998FFE7FFE741F21800C4F20200016898
:101F700041F008010160006800F00800089008982E
:101F8000FFE741F20000C4F2010001904FF400515C
:101F9000009100220392FEF719FC039A40F60040DC
:101FA000C4F2010005904FF440510791FEF70EFC7A
:101FB000009A019803990C92012202920D920E91BF
:101FC000022104910F910CA90691FEF75BFADDF84E
:101FD00008C0039B049A05980699DDF81CE0CDF82B
:101FE00030E0CDF834C00E930F92FEF74BFA10B0EC
:101FF00080BD000080B58AB0002100910991089150
:10200000079106910591049103910291019140F28B
:102010007000C2F200004FF080420260472242602E
:10202000816044F61F62C260016180218161FFF717
:10203000EFFA18B1FFE7FEF72FF9FFE7002008904D
:10204000099040F27000C2F2000008A9FFF78EF973
:1020500018B1FFE7FEF720F9FFE7602001900022AA
:1020600002920392059240F27000C2F2000001A9B0
:10207000FFF716FA18B1FFE7FEF70EF9FFE740F297
:102080007000C2F2000001A90422FFF709FA18B19A
:10209000FFE7FEF701F9FFE740F27000C2F200002F
:1020A00001A90822FFF7FCF918B1FFE7FEF7F4F8E1
:1020B000FFE740F27000C2F2000001A90C22FFF716
:1020C000EFF918B1FFE7FEF7E7F8FFE740F270001D
:1020D000C2F20000FFF7B8F90AB080BD80B582B047
:1020E00040F2B800C2F20000019043F60001C4F2D1
:1020F000010101604FF41651416000218160C1600F
:1021000001610C2242618161C161FFF7CFFD18B10D
:10211000FFE7FEF7C1F8FFE702B080BDFFE7FEE78B
:10212000FFE7FEE788B0079006910592079800F058
:10213000070004900498C0F10700052803D3FFE7C7
:102140000420019004E00498C0F107000190FFE72B
:102150000198039004980430062803D8FFE7002074
:10216000009003E0049803380090FFE70098029085
:1021700006980399012202FA01F101390840029BF5
:10218000984005999A40013A1140084308B07047B9
:1021900080B582B000208DF80600FFE79DF80600AC
:1021A000072820DCFFE79DF806000021009100F0E1
:1021B00031F900988DF80700FFE79DF807007F28A8
:1021C0000ADCFFE7002000F02DFAFFE79DF807008A
:1021D00001308DF80700F0E7FFE79DF806000130B9
:1021E0008DF80600DAE702B080BD000080B582B04D
:1021F00040F60040C4F2010000904FF480510122EB
:102200000192FEF7E3FA0098019A4FF40051FEF7AD
:10221000DDFA02B080BD000080B586B08DF81700F1
:1022200000208DF81600FFE79DF81600072824DC33
:10223000FFE79DF817009DF816208021D14000EAA5
:10224000010240F60040C4F2010003904FF4005137
:10225000FEF7BCFA03984FF4805104910122FEF777
:10226000B5FA039804990022FEF7B0FAFFE79DF84B
:10227000160001308DF81600D6E740F60040C4F293
:10228000010001904FF4805102910122FEF79EFA65
:10229000019802990022FEF799FA06B080BD00006D
:1022A00080B586B040F60040C4F2010003904FF4C0
:1022B0000051029101220192FEF788FA019A0398D7
:1022C0004FF480510491FEF781FA0299039800229D
:1022D0000592FEF77BFA03980499059AFEF776FAC1
:1022E00006B080BD80B584B040F60040C4F2010065
:1022F00001904FF4005102910022FEF767FA019815
:102300004FF4805101220392FEF760FA019802997E
:10231000039AFEF75BFA04B080BD000080B582B07E
:1023200000200190FFE70198C0087C2812D8FFE741
:1023300000200090FFE70098C0087C2805D8FFE740
:10234000FFE7009801300090F5E7FFE701980130C2
:102350000190E8E7FFF74AFFAE2000F04FF9D520E3
:1023600000F04CF9802000F049F9A82000F046F96F
:102370003F2000F043F9D32000F040F9002000F0A6
:102380003DF9402000F03AF9A12000F037F9C820CB
:1023900000F034F9DA2000F031F9122000F02EF9C3
:1023A000812000F02BF9CF2000F028F9D92000F08F
:1023B00025F9F12000F022F9DB2000F01FF9302090
:1023C00000F01CF9A42000F019F9A62000F016F97D
:1023D0008D2000F013F9142000F010F9AF2000F068
:1023E0000DF9FFF7D5FE02B080BD000083B002906A
:1023F000019101200090FFE70198411E019128B151
:10240000FFE70299009848430090F5E7009803B071
:102410007047000080B582B08DF807008DF8061077
:102420009DF8070040F0B00000F0E8F89DF80600C5
:102430000009103000F0E2F89DF8060000F00F00EF
:1024400000F0DCF802B080BD80B582B08DF80700E6
:102450008DF806108DF805209DF807106FF001002B
:1024600000EB41009DF806206FF0070101EBC2016F
:10247000C0B2C9B2FFF7CEFF00208DF80400FFE71D
:102480009DF80400072819DCFFE79DF8051043F6C6
:102490001630C0F6000000EB01109DF8041008444F
:1024A0004FF60061CFF6FF71405C00F0BBF8FFE72C
:1024B0009DF8040001308DF80400E1E79DF8071055
:1024C0004FF0FF3000EB41009DF806206FF0070150
:1024D00001EBC201C0B2C9B2FFF79CFF00208DF82A
:1024E0000400FFE79DF80400072819DCFFE79DF8CA
:1024F000051043F61630C0F6000000EB01109DF801
:10250000041008444FF60861CFF6FF71405C00F0FC
:1025100089F8FFE79DF8040001308DF80400E1E739
:1025200002B080BD80B586B08DF817008DF816100A
:1025300004928DF80F3000208DF80E00FFE79DF813
:102540000E009DF80F1088422FDAFFE79DF8170064
:1025500002909DF816109DF80E0001440191049917
:1025600000919DF80F10C04301440A20FFF73EFF81
:10257000009A019903460298B2FBF3F24CF6CD4360
:10258000CCF6CC43A2FB03C3DB0803EB8303A2EB33
:10259000430242F03002C9B2FFF756FFFFE79DF851
:1025A0000E0001308DF80E00C9E706B080BD0000B6
:1025B00080B584B08DF80F008DF80E1002920020C7
:1025C0008DF80700FFE702989DF80710405C98B16E
:1025D000FFE79DF80F009DF80E109DF80730194495
:1025E000029AD25CC9B2FFF72FFFFFE79DF8070000
:1025F00001308DF80700E6E704B080BD80B582B0F9
:102600008DF80700FFF74CFE7820FFF705FE00204D
:10261000FFF702FE9DF80700FFF7FEFDFFF762FEE1
:1026200002B080BD80B582B08DF80700FFF738FE9C
:102630007820FFF7F1FD4020FFF7EEFD9DF8070041
:10264000FFF7EAFDFFF74EFE02B080BD70470000C5
:1026500082B00190019840F20001C2F200010968C5
:10266000C90844F6D352C1F26202A1FB02218909D2
:1026700048430090FFE700BFFFE70098411E00912C
:102680000028F8D1FFE702B0704700007047000053
:1026900080B582B040F27000C2F2000001900021CB
:1026A000FFF71EF801980421FFF71AF80198082196
:1026B000FFF716F801980C21FFF712F802B080BD61
:1026C00080B586B0059004910498002101F084F84B
:1026D00018B9FFE700200490FFE704980021C4F236
:1026E000343101F080F828B9FFE70020C4F234301B
:1026F0000490FFE704980021C4F2FA4101F02AF99E
:1027000001F02AF8002248F20003C4F2660300F048
:1027100045FE00F09DFF00F5FA70ADF80E0005983B
:1027200048B9FFE7BDF80E0040F27001C2F20001A7
:10273000096848632DE0059804280BD1FFE7BDF830
:102740000E10084640F27002C2F200021268916355
:1027500002901CE0059808280BD1FFE7BDF80E1089
:10276000084640F27002C2F200021268D163019082
:102770000AE0BDF80E10084640F27002C2F20002F4
:10278000126811640190FFE701980290FFE7029838
:10279000FFE706B080BD000080B582B000900098D1
:1027A0000138B0F1807F03D3FFE70120019019E0E9
:1027B000009801384EF21401CEF2000108604FF08B
:1027C000FF300F2100F0A2FC4EF21801CEF2000102
:1027D000002008604EF21002CEF2000207211160C4
:1027E0000190FFE7019802B080BD000080B5FEF7C0
:1027F0000BF880BD80B590B006A800902821FDF7A9
:10280000E3FC009800230593049303930293019340
:10281000012206924FF48031079108930A92022216
:102820000D920E914FF4E0110F91FEF759FA18B185
:10283000FFE7FDF731FDFFE70F2001900221029134
:10284000002003904FF480620492059001A8FEF7E7
:1028500093F818B1FFE7FDF71FFDFFE710B080BD4B
:102860007047000083B002900191029800680090C8
:10287000029842F60041C4F20101884215D0FFE7F8
:102880000298B0F1804F10D0FFE7029840F200416B
:10289000C4F20001884208D0FFE7029840F6000128
:1028A000C4F2000188420AD1FFE7009820F07000CE
:1028B000009001984168009808430090FFE7029853
:1028C00042F60041C4F20101884215D0FFE70298A8
:1028D000B0F1804F10D0FFE7029840F20041C4F2FF
:1028E0000001884208D0FFE7029840F60001C4F2D8
:1028F000000188420AD1FFE7009820F44070009060
:102900000198C168009808430090FFE7009820F004
:102910008000019949690843009000980299086075
:10292000019880680299C8620198006802998862DB
:10293000029842F60041C4F20101884205D1FFE746
:102940000198006902990863FFE702990120486134
:1029500002980069C00730B1FFE70299086920F0CA
:1029600001000861FFE703B07047000084B00390E6
:1029700002910192029800F01F010120884000900E
:10298000009A0399086A904308620198029901F03D
:102990001F0100FA01F20399086A1043086204B0AB
:1029A0007047000085B0049003910498006A01907C
:1029B0000499086A20F001000862049840680090B9
:1029C000049880690290029820F0700002900298AA
:1029D00020F00300029003980168029808430290D7
:1029E000019820F002000190039881680198084343
:1029F0000190049842F60041C4F2010188420ED1D0
:102A0000FFE7019820F0080001900398C168019841
:102A100008430190019820F004000190FFE704981A
:102A200042F60041C4F20101884213D1FFE7009849
:102A300020F480700090009820F4007000900398BB
:102A40004169009808430090039881690098084301
:102A50000090FFE700980499486002980499886103
:102A6000039840680499486301980499086205B086
:102A70007047000085B0049003910498006A0190AB
:102A80000499086A20F010000862049840680090D9
:102A9000049880690290029820F4E0400290029825
:102AA00020F44070029003980168029840EA0120E7
:102AB0000290019820F0200001900398816801980D
:102AC00040EA01100190049842F60041C4F201016D
:102AD00088420FD1FFE7019820F080000190039811
:102AE000C168019840EA01100190019820F040006F
:102AF0000190FFE7049842F60041C4F201018842C8
:102B000015D1FFE7009820F480600090009820F431
:102B10000060009003984169009840EA81000090AD
:102B200003988169009840EA81000090FFE70098CF
:102B30000499486002980499886103984068049950
:102B4000886301980499086205B0704785B00490C5
:102B500003910498006A01900499086A20F4807037
:102B600008620498406800900498C0690290029836
:102B700020F070000290029820F003000290039869
:102B80000168029808430290019820F400700190B7
:102B900003988168019840EA01200190049842F668
:102BA0000041C4F2010188420FD1FFE7019820F4EF
:102BB000006001900398C168019840EA01200190EB
:102BC000019820F480600190FFE7049842F60041EC
:102BD000C4F20101884215D1FFE7009820F480502B
:102BE0000090009820F400500090039841690098EC
:102BF00040EA0110009003988169009840EA0110B2
:102C00000090FFE700980499486002980499C86111
:102C1000039840680499C86301980499086205B054
:102C20007047000085B0049003910498006A0190F9
:102C30000499086A20F48050086204984068009063
:102C40000498C0690290029820F4E0400290029833
:102C500020F44070029003980168029840EA012035
:102C60000290019820F40050019003988168019827
:102C700040EA01300190049842F60041C4F201019B
:102C800088420BD1FFE7009820F480400090039821
:102C90004169009840EA81100090FFE7009804998C
:102CA000486002980499C8610398406804990864D0
:102CB00001980499086205B07047000080B582B0A1
:102CC00001900198406A009000990020C885009901
:102CD000C8840098FEF7BAFD02B080BD84B00390AE
:102CE000FFE7FFE70398006850E8030F20F49070B7
:102CF0000290FFE702990398026842E80310002857
:102D0000F0D1FFE7FFE7FFE7FFE70398006850E82F
:102D1000050F20F001000190FFE701990398026878
:102D200042E805100028F0D1FFE7FFE70398006BA9
:102D3000012814D1FFE7FFE7FFE70398006850E898
:102D4000030F20F010000090FFE70099039802683D
:102D500042E803100028F0D1FFE7FFE7FFE70399FF
:102D6000202081F8420003990020086304B07047D6
:102D700080B582B0019001980168C86820F04000D9
:102D8000C8600199202081F841000198FFF796F86A
:102D9000002002B080BD000080B586B00490049889
:102DA00090F84200222840F0A480FFE70498806851
:102DB000B0F5805F15D1FFE70498006988B9FFE797
:102DC000002003900498806A02900498006840688C
:102DD0006FF35F20029908800499886A0230886244
:102DE00025E00498806A039000200290049880688F
:102DF000B0F5805F08D0FFE70498806850B9FFE71E
:102E00000498006930B9FFE70498006840680399A6
:102E1000087007E004980068406800F07F0003999C
:102E20000870FFE70499886A01308862FFE7049917
:102E3000C88D0138C8850004002856D1FFE70498E2
:102E40000168C86820F02000C86004980168C8685C
:102E500020F48070C86004980168486920F001007F
:102E600048610499202081F84200049900204863B9
:102E70000498006B012830D1FFE704990020086313
:102E8000FFE7FFE70498006850E8030F20F0100008
:102E90000190FFE701990498026842E803100028B6
:102EA000F0D1FFE7FFE7049800680068C00600283B
:102EB0000ED5FFE7FFE70020009004980068006847
:102EC000009004980068406800900098FFE7FFE7D2
:102ED0000498818DFEF7B4FC03E00498FEF7B8FF78
:102EE000FFE700208DF8170007E000208DF817009D
:102EF00003E002208DF81700FFE79DF8170006B0E9
:102F000080BD000080B584B003900398006800691C
:102F100020F44050039A1168D26810430861039965
:102F200088680A6949691043084302900398006859
:102F3000C06841F20C61884302990843039909680B
:102F4000C86003980068406920F44070039A1168D3
:102F50009269104348610398006843F60001C4F287
:102F60000101884204D1FFE7FDF74AFE019003E02A
:102F7000FDF734FE0190FFE7019819214843039AB9
:102F8000116852689200B0FBF2FC48F21F52C5F281
:102F9000EB12ACFB02304309642003FB10CC32205F
:102FA00000EB0C10A0FB0202F02000EA521000EB34
:102FB0000310C2F343121044886004B080BD0000C7
:102FC00083B002900191ADF80220019802998862C5
:102FD000BDF8020002998885BDF802000299C885F3
:102FE0000299002048640299222081F84200029848
:102FF000006938B1FFE702980168C86840F4807042
:10300000C860FFE702980168486940F00100486124
:1030100002980168C86840F02000C860002003B032
:103020007047000083B00190019890F8410021287A
:103030003AD1FFE701988068B0F5805F13D1FFE7D0
:103040000198006978B9FFE70198006A009000983C
:1030500000886FF35F200199096848600199086A48
:103060000230086208E0019A106A411C116200787F
:10307000019909684860FFE70199C88C0138C88444
:10308000000468B9FFE701980168C86820F0800073
:10309000C86001980168C86840F04000C860FFE758
:1030A00000208DF80B0003E002208DF80B00FFE7F5
:1030B0009DF80B0003B0704780B540F2B800C2F233
:1030C0000000FEF7DDFB80BDFFE7FEE781B08DF875
:1030D00003009DF9030000280ED4FFE79DF90310BB
:1030E00001F01F02012090404A094EF20011CEF279
:1030F000000141F82200FFE701B070474EF60C5086
:10310000CEF200000068C0F30220704782B08DF854
:10311000070000919DF9070000280AD4FFE70098F6
:1031200000019DF907104EF20042CEF200028854D1
:103130000BE0009800019DF8071001F00F014EF61A
:103140001452CEF200028854FFE702B0704700002C
:1031500083B00290029800F0070000904EF60C51E8
:10316000CEF200010868019001984FF6FF0210406E
:1031700001900198009A40EA02200022C0F2FA521F
:10318000104301900198086003B0704780B58CB07F
:1031900000200A900B90FDF745FBFFF72BFBFEF795
:1031A000ADFEFEF727FFFEF799FFFFF7B7F8FEF732
:1031B0008BFEFFF76DFA0A990846FFF781FA0A9924
:1031C0000420FFF77DFA0A990820FFF779FA0A9997
:1031D0000C20FFF775FA40F2B800C2F2000040F28E
:1031E0000011C2F200010122FEF706FEFFE744F2E1
:1031F0003D12C0F600020220069001210791FFF760
:10320000D7F90698079B40F20111C2F2000108911C
:103210000A780621FFF786F9FEF766FE089800781F
:10322000013801460991042800F29A8009990FF2A9
:10323000080000EB8100874600F008B800F022B8D3
:1032400000F03CB800F056B800F070B844F24312F9
:10325000C0F6000201210846FFF7AAF900200590F8
:103260000021C4F2B421FFF72BFA05990420FFF7DF
:1032700027FA05990820FFF723FA05990C20FFF794
:103280001FFA87E044F23212C0F60002012108461C
:10329000FFF78EF9002104910846FFF711FA042088
:1032A0000021C4F2B421FFF70BFA04990820FFF7BC
:1032B00007FA04990C20FFF703FA6BE044F2271297
:1032C000C0F6000201210846FFF772F900210391C0
:1032D0000846FFF7F5F903990420FFF7F1F90820F4
:1032E0000021C4F2B421FFF7EBF903990C20FFF79A
:1032F000E7F94FE044F21112C0F60002012108463E
:10330000FFF756F9002102910846FFF7D9F9029913
:103310000420FFF7D5F902990820FFF7D1F90C2016
:103320000021C4F2B421FFF7CBF933E044F20612D6
:10333000C0F6000201210846FFF73AF90021019189
:103340000846FFF7BDF901990420FFF7B9F9019983
:103350000820FFF7B5F901990C20FFF7B1F919E042
:1033600044F21C12C0F6000201210846FFF720F9C2
:10337000002100910846FFF7A3F900990420FFF708
:103380009FF900990820FFF79BF900990C20FFF79F
:1033900097F9FFE76420FDF753F828E72DE9C041CE
:1033A00030B4DFF8A4C23CEA111418BF3CEA13148D
:1033B00000F0ED801CEA111481EA030544EAD5749B
:1033C00018BF1CEA131500F0C880A4EB050404F133
:1033D0007F7404F500344FF0004545EAC12145EA09
:1033E000C32341EA505143EA52534FEAC0204FEA07
:1033F000C222994208BF904200F09D804FEA1365B7
:103400000FF24416765D4FEA134506FB05F7C7F148
:10341000807706FB07F74FEAD737A7FB03687642AA
:10342000A7FB06CEC8F5803838BFA8F1010807FB16
:1034300008E6A6FB028C4FF0000EE6FB03CEDCF1A3
:10344000000CCEF1004E38BFAEF1010EA6FB0C58B9
:103450004FF00007E6FB0E87A1FB08C6A0FB07CED6
:1034600016EB0E064FF0000545F10005E1FB076580
:1034700015F1E04E7EBFA4F580345FEA46066D414B
:1034800016F1800745F100054FEA172747EA05675F
:103490004FEA15254FEA0666A6F1DE46B6F1805FD3
:1034A00020D9384605EBC47124F0010C01EB0C1156
:1034B000BCF1FE6F02D8F0BCBDE8008124425CBFC5
:1034C00001F5801E9EEAC47F02D4F0BCBDE80081F5
:1034D000244200F13980A1F1C041F0BCBDE80041B7
:1034E00000F033B94FEAD02040EA41504FEAD121F1
:1034F0004FEAD22242EA43524FEAD323A7FB028685
:1035000007FB036605FB02661EEA0E0F58BFA6EB1B
:103510000056B6EB00564FEA520E4EEAC37E18EB49
:103520000E0E56EB530EBCD518EB02085E417F1C05
:1035300055F10005B5E74FF480154FF000074FF047
:1035400000064FF00008ACE701F1C04101F0004176
:103550004FF00000F0BCBDE800810CEA131511EA41
:103560000C1F00D00CE013EA0C1F00F026804FF077
:10357000000081EA030101F00041F0BCBDE80081D8
:10358000F0BCBDE8004181EA030100F0DEB8F0BC08
:10359000BDE8004170B500F08AF800BF097EFC3E2E
:1035A00000F007B84FF0000081EA030101F000418C
:1035B000704781EA030100F0C8B8F0BCBDE80041E3
:1035C00022494FF000007047FFFDFBF9F7F5F4F2D8
:1035D000F0EEEDEBE9E8E6E4E3E1E0DEDDDBDAD8AE
:1035E000D7D5D4D3D1D0CFCDCCCBCAC8C7C6C5C40C
:1035F000C2C1C0BFBEBDBCBBBAB9B8B7B6B5B4B323
:10360000B2B1B0AFAEADACABAAA9A8A8A7A6A5A40D
:10361000A3A3A2A1A09F9F9E9D9C9C9B9A999998D1
:103620009797969595949393929191908F8F8E8E74
:103630008D8C8C8B8B8A8989888887878685858401
:1036400084838382828181800000FF070000F87FED
:103650004FEA41034FEA5353A3F58063D3F11E03AE
:10366000C8BFD3F1210C0CDD4FF0004242EAC12269
:1036700042EA505232FA03FC8CEAE17CACEBE17096
:103680007047102BC4BF0020704703F5787CBCF155
:10369000FF3F04D06FF0004282EA2100704770B50E
:1036A00000F005F84992248000207047F2E70EF1FF
:1036B000020E2EF0030E5EF8046B364205D4012A8A
:1036C00043EB030515F5001F12D8012841EB010C4F
:1036D0001CF5001F0CD80ED14FEAD17C0CEB4C0C22
:1036E0000CF1020C15F5001F08BF4CEBD37C04E075
:1036F0004FF0080C01E04FEAD37C0CEB4C0526FAA6
:1037000005F606F00706B6F1040C06D20EEB860CA1
:10371000BDE870404CF0010C6047DFE80CF0090B8D
:1037200002024FF00041A1F500214FF0000070BDF2
:1037300019461046012851EB010418BFD4F50014B6
:1037400084BF002001F0004170BD0808A0F5001101
:103750004FEA31017047000043004FEAD30C4FEAB3
:103760003C0C43401FBF40070CF1605113F0FE4F6B
:1037700070471CF0006F03D10CF00041002070472F
:103780000CF0004343EA507040EACC0010B500F062
:1037900062F900BF000000924FEA0001FFF7D5BFB9
:1037A0004FF00041A1F500214FF00000704710B527
:1037B00000F034F80CBF0120002010BD10B500F05F
:1037C0002DF814BF0120002010BD10B500F05AF8EC
:1037D0008CBF0120002010BD10B500F053F82CBFA5
:1037E0000120002010BD10B500F080F894BF01202A
:1037F000002010BD10B500F079F834BF0120002082
:1038000010BD401058BFC0F14040491058BFC1F131
:1038100040418142EFF300807047000050EA010C04
:1038200000F113801CF5000F58BFBCF5000F01D448
:103830008842704707D710F5000F58BF11F5000FE9
:1038400015D488427047894270471CF5000F04D593
:10385000BCF5000FF7D5814270474FF0807C1CEB20
:10386000400F38BF1CEB410F01D28142704710B5A9
:1038700000F0F1F8922449004FF000504FF08051D1
:10388000FFF7BFBF50EA010C00F113801CF5000FD9
:1038900058BFBCF5000F01D48842704707D710F518
:1038A000000F58BF11F5000F15D4884270478942A8
:1038B00070471CF5000F04D5BCF5000FF7D5814209
:1038C00070474FF0807C1CEB400F38BF1CEB410F62
:1038D00001D28142704710B500F0BDF89224490032
:1038E0004FF080504FF00051FFF78BBF50EA010CB2
:1038F00000F113801CF5000F58BFBCF5000F01D478
:103900008842704707D710F5000F58BF11F5000F18
:1039100015D488427047894270471CF5000F04D5C2
:10392000BCF5000FF7D5814270474FF0807C1CEB4F
:10393000400F38BF1CEB410F01D28142704710B5D8
:1039400000F089F8922449004FF000504FF0805168
:10395000FFF757BF4FF47F0C1CEAD0121EBF1CEAC2
:10396000D11392EA0C0F93EA0C0F00F0478090EA13
:10397000010F48BF42F480724FF0004C4CEA002027
:103980004CEA012102EB0302A0FB0113A2F50002A5
:10399000002918BF43F001035B0028BF4FEA33033F
:1039A00042EB22425FEA132C4CEBC2502EBFBCEB21
:1039B000436FB2F57C0F70474FEA036CBCF1004FC8
:1039C00008BF20F00100B2F57C0F38BF70470BD55F
:1039D00082F0FF0212F5803FC8BF704700F1C0407F
:1039E000D8BF00F00040704700F5000C5FEA4C0CB7
:1039F00048BF7047B0F1C04000F073B80CEAD11373
:103A000090EA010F48BF42F48072624538BF6345B7
:103A100004D280EA010000F00040704710B500F0C9
:103A20001AF800BF8900013E00F007B800F009B89D
:103A30005FEA410C5FEA1C6C08D080EA010000F0EC
:103A400050B85FEA400C5FEA1C6CF6D14FF00040C2
:103A5000A0F5800070470EF1020E2EF0030E5EF806
:103A6000044B244204D44FEA4102B2F17F4F11D8F3
:103A70004FEA4003B3F17F4F0CD80ED14FEAD07C10
:103A80000CEB4C0C0CF1020CB2F17F4F08BF4CEB6D
:103A9000D17C04E04FF0080C01E04FEAD17C0CEB44
:103AA0004C0324FA03F404F00704B4F1040C06D226
:103AB0000EEB840CBDE810404CF0010C6047DFE8D1
:103AC0000CF0070802024FF00040A0F5800010BD86
:103AD0000846420018BFD2F1807288BF00F0004053
:103AE00010BDFF2141EAD050C00570470000000022
:103AF000000000000102030406070809000000009E
:103B00000102030402030405060708090A0B0C0D51
:103B10000E0F101001020000000000000000000065
:103B2000000000000000000000F80000000000009D
:103B300000333000000000100C06100C06000000DE
:103B400000000000000040C07840C0784000043F02
:103B500004043F040400007088FC083000000018D2
:103B600020FF211E0000F008F000E01800000021F6
:103B70001C031E211E0000F00888700000001E219A
:103B800023241927211010160E0000000000000049
:103B9000000000000000000000E018040200000027
:103BA00000071820400000020418E0000000004058
:103BB000201807000000404080F0804040000202D2
:103BC000010F01020200000000F0000000000101EE
:103BD000011F01010100000000000000000080B092
:103BE0007000000000000000000000000000000164
:103BF000010101010101000000000000000000308F
:103C00003000000000000000000080601804006028
:103C100018060100000000E010080810E000000F86
:103C2000102020100F00001010F8000000000020ED
:103C3000203F202000000070080808887000003035
:103C400028242221300000300888884830000018DD
:103C5000202020110E000000C02010F800000007F6
:103C60000424243F240000F808888808080000196C
:103C7000212020110E0000E0108888180000000F9D
:103C8000112020110E0000380808C8380800000074
:103C9000003F000000000070880808887000001CC9
:103CA000222121221C0000E010080810E000000082
:103CB000312222110F00000000C0C00000000000EF
:103CC0000030300000000000008000000000000014
:103CD000806000000000000080402010080000010B
:103CE00002040810200040404040404040000404CE
:103CF0000404040404000008102040800000002098
:103D0000100804020100007048080808F0000000D4
:103D1000003036010000C030C828E810E000071865
:103D2000272423140B000000C038E0000000203CD2
:103D300023020227382008F8888888700000203F76
:103D4000202020110E00C03008080808380007188D
:103D500020202010080008F808080810E000203F84
:103D6000202020100F0008F88888E8081000203F65
:103D700020202320180008F88888E8081000203F39
:103D8000200003000000C0300808083800000718B1
:103D90002020221E020008F808000008F808203F32
:103DA000210101213F20000808F808080000002038
:103DB000203F2020000000000808F8080800C0800C
:103DC00080807F00000008F888C028180800203F85
:103DD00020012638200008F8080000000000203FDD
:103DE00020202020300008F8F800F8F80800203FD4
:103DF000003F003F200008F830C00008F808203FCE
:103E0000200007183F00E01008080810E0000F101D
:103E1000202020100F0008F808080808F000203FB4
:103E2000210101010000E01008080810E0000F184F
:103E3000242438504F0008F8888888887000203F74
:103E40002000030C30200070880808083800003873
:103E5000202121221C00180808F80808180000007A
:103E6000203F2000000008F808000008F808001FA4
:103E7000202020201F000878880000C83808000093
:103E800007380E010000F80800F80008F800033CAD
:103E90000700073C03000818688080681808203075
:103EA0002C03032C30200838C800C8380800000054
:103EB000203F2000000010080808C83808002038FB
:103EC000262120201800000000FE0202020000004F
:103ED000007F40404000000C30C0000000000000A7
:103EE00000010638C00000020202FE00000000408F
:103EF00040407F00000000000402020204000000B5
:103F000000000000000000000000000000008080B1
:103F10008080808080800002020400000000000099
:103F20000000000000000000808080800000001978
:103F3000242222223F2008F8008080000000003F59
:103F4000112020110E000000008080800000000E73
:103F5000112020201100000000808088F800000E51
:103F6000112020103F200000808080800000001F72
:103F7000222222221300008080F0888888180020E6
:103F8000203F202000000000808080808000006BA7
:103F900094949493600008F8008080800000203F93
:103FA000210000203F2000809898000000000020A1
:103FB000203F20200000000000809898000000C0F2
:103FC0008080807F000008F8000080808000203F13
:103FD00024022D302000000808F800000000002016
:103FE000203F202000008080808080808000203F53
:103FF00020003F20003F8080008080800000203F24
:10400000210000203F200000808080800000001FF1
:10401000202020201F00808000808000000080FF82
:10402000A12020110E000000008080808000000E82
:10403000112020A0FF8080808000808080002020D0
:104040003F2120000100000080808080800000333C
:10405000242424241900008080E0808000000000D7
:10406000001F202000008080000000808000001FD2
:10407000202020103F208080800000808080000170
:104080000E300806010080800080008080800F30A4
:104090000C030C300F000080800080808000002026
:1040A000312E0E3120008080800000808080808151
:1040B0008E701806010000808080808080000021C2
:1040C000302C2221300000000000807C0202000021
:1040D0000000003F404000000000FF000000000022
:1040E0000000FF0000000002027C80000000004091
:1040F000403F00000000000601010202040400002D
:10410000000000000000436C6F7365202020202019
:10411000004F746865722020202020005761697468
:10412000696E67202020004B69746368656E2020EB
:10413000200048617A6172646F75732000466C617B
:10414000673A0052656379636C61626C65000000D8
:104150007041000800000020100000002801000845
:104160008041000810000020F8060000440100080B
:1041700000127A00010000001000000000000000A2
:04000005080000ED02
:00000001FF
